{
  "_format": "hh-sol-artifact-1",
  "contractName": "Staker",
  "sourceName": "contracts/Staker.sol",
  "abi": [
    {
      "inputs": [
        {
          "internalType": "address",
          "name": "_tokenToStake",
          "type": "address"
        }
      ],
      "stateMutability": "nonpayable",
      "type": "constructor"
    },
    {
      "inputs": [
        {
          "internalType": "uint256",
          "name": "amount",
          "type": "uint256"
        }
      ],
      "name": "stake",
      "outputs": [
        {
          "internalType": "uint256",
          "name": "stakedAmount",
          "type": "uint256"
        }
      ],
      "stateMutability": "nonpayable",
      "type": "function"
    },
    {
      "inputs": [
        {
          "internalType": "address",
          "name": "",
          "type": "address"
        }
      ],
      "name": "stakedBalances",
      "outputs": [
        {
          "internalType": "uint256",
          "name": "",
          "type": "uint256"
        }
      ],
      "stateMutability": "view",
      "type": "function"
    },
    {
      "inputs": [],
      "name": "tokenToStake",
      "outputs": [
        {
          "internalType": "contract IERC20",
          "name": "",
          "type": "address"
        }
      ],
      "stateMutability": "view",
      "type": "function"
    },
    {
      "inputs": [
        {
          "internalType": "uint256",
          "name": "stakedAmount",
          "type": "uint256"
        }
      ],
      "name": "unstake",
      "outputs": [
        {
          "internalType": "uint256",
          "name": "amount",
          "type": "uint256"
        }
      ],
      "stateMutability": "nonpayable",
      "type": "function"
    }
  ],
  "bytecode": "0x608060405234801561001057600080fd5b50604051610a20380380610a20833981810160405281019061003291906100dc565b80600160006101000a81548173ffffffffffffffffffffffffffffffffffffffff021916908373ffffffffffffffffffffffffffffffffffffffff16021790555050610109565b600080fd5b600073ffffffffffffffffffffffffffffffffffffffff82169050919050565b60006100a98261007e565b9050919050565b6100b98161009e565b81146100c457600080fd5b50565b6000815190506100d6816100b0565b92915050565b6000602082840312156100f2576100f1610079565b5b6000610100848285016100c7565b91505092915050565b610908806101186000396000f3fe608060405234801561001057600080fd5b506004361061004c5760003560e01c80631460fa87146100515780632e17de78146100815780632feec063146100b1578063a694fc3a146100cf575b600080fd5b61006b600480360381019061006691906104b8565b6100ff565b60405161007891906104fe565b60405180910390f35b61009b60048036038101906100969190610545565b610117565b6040516100a891906104fe565b60405180910390f35b6100b96102e3565b6040516100c691906105d1565b60405180910390f35b6100e960048036038101906100e49190610545565b610309565b6040516100f691906104fe565b60405180910390f35b60006020528060005260406000206000915090505481565b6000816000803373ffffffffffffffffffffffffffffffffffffffff1673ffffffffffffffffffffffffffffffffffffffff16815260200190815260200160002054101561019a576040517f08c379a00000000000000000000000000000000000000000000000000000000081526004016101919061066f565b60405180910390fd5b816000803373ffffffffffffffffffffffffffffffffffffffff1673ffffffffffffffffffffffffffffffffffffffff16815260200190815260200160002060008282546101e891906106be565b925050819055508190506000600160009054906101000a900473ffffffffffffffffffffffffffffffffffffffff1673ffffffffffffffffffffffffffffffffffffffff1663a9059cbb33846040518363ffffffff1660e01b8152600401610251929190610701565b6020604051808303816000875af1158015610270573d6000803e3d6000fd5b505050506040513d601f19601f820116820180604052508101906102949190610762565b905060011515811515146102dd576040517f08c379a00000000000000000000000000000000000000000000000000000000081526004016102d4906107db565b60405180910390fd5b50919050565b600160009054906101000a900473ffffffffffffffffffffffffffffffffffffffff1681565b600080600160009054906101000a900473ffffffffffffffffffffffffffffffffffffffff1673ffffffffffffffffffffffffffffffffffffffff166323b872dd3330866040518463ffffffff1660e01b815260040161036b939291906107fb565b6020604051808303816000875af115801561038a573d6000803e3d6000fd5b505050506040513d601f19601f820116820180604052508101906103ae9190610762565b905060011515811515146103f7576040517f08c379a00000000000000000000000000000000000000000000000000000000081526004016103ee9061087e565b60405180910390fd5b829150816000803373ffffffffffffffffffffffffffffffffffffffff1673ffffffffffffffffffffffffffffffffffffffff1681526020019081526020016000206000828254610448919061089e565b9250508190555050919050565b600080fd5b600073ffffffffffffffffffffffffffffffffffffffff82169050919050565b60006104858261045a565b9050919050565b6104958161047a565b81146104a057600080fd5b50565b6000813590506104b28161048c565b92915050565b6000602082840312156104ce576104cd610455565b5b60006104dc848285016104a3565b91505092915050565b6000819050919050565b6104f8816104e5565b82525050565b600060208201905061051360008301846104ef565b92915050565b610522816104e5565b811461052d57600080fd5b50565b60008135905061053f81610519565b92915050565b60006020828403121561055b5761055a610455565b5b600061056984828501610530565b91505092915050565b6000819050919050565b600061059761059261058d8461045a565b610572565b61045a565b9050919050565b60006105a98261057c565b9050919050565b60006105bb8261059e565b9050919050565b6105cb816105b0565b82525050565b60006020820190506105e660008301846105c2565b92915050565b600082825260208201905092915050565b7f43616e6e6f7420756e7374616b65206d6f7265207468616e20796f752068617660008201527f6500000000000000000000000000000000000000000000000000000000000000602082015250565b60006106596021836105ec565b9150610664826105fd565b604082019050919050565b600060208201905081810360008301526106888161064c565b9050919050565b7f4e487b7100000000000000000000000000000000000000000000000000000000600052601160045260246000fd5b60006106c9826104e5565b91506106d4836104e5565b92508282039050818111156106ec576106eb61068f565b5b92915050565b6106fb8161047a565b82525050565b600060408201905061071660008301856106f2565b61072360208301846104ef565b9392505050565b60008115159050919050565b61073f8161072a565b811461074a57600080fd5b50565b60008151905061075c81610736565b92915050565b60006020828403121561077857610777610455565b5b60006107868482850161074d565b91505092915050565b7f7472616e73666572206661696c65640000000000000000000000000000000000600082015250565b60006107c5600f836105ec565b91506107d08261078f565b602082019050919050565b600060208201905081810360008301526107f4816107b8565b9050919050565b600060608201905061081060008301866106f2565b61081d60208301856106f2565b61082a60408301846104ef565b949350505050565b7f7472616e7366657246726f6d206661696c656400000000000000000000000000600082015250565b60006108686013836105ec565b915061087382610832565b602082019050919050565b600060208201905081810360008301526108978161085b565b9050919050565b60006108a9826104e5565b91506108b4836104e5565b92508282019050808211156108cc576108cb61068f565b5b9291505056fea26469706673582212203b183a9445116fb9c1ae370f63e244b4c61ac396fa4c2a964bc811dd2c8922a664736f6c63430008110033",
  "linkReferences": {},
  "deployedLinkReferences": {}
}