{
  "_format": "hh-sol-artifact-1",
  "contractName": "EchidnaSolution",
  "sourceName": "contracts/Solution.sol",
  "abi": [
    {
      "inputs": [],
      "stateMutability": "nonpayable",
      "type": "constructor"
    },
    {
      "inputs": [
        {
          "internalType": "uint256",
          "name": "_amount",
          "type": "uint256"
        }
      ],
      "name": "testStake",
      "outputs": [],
      "stateMutability": "nonpayable",
      "type": "function"
    },
    {
      "inputs": [
        {
          "internalType": "uint256",
          "name": "_stakedAmount",
          "type": "uint256"
        }
      ],
      "name": "testUnstake",
      "outputs": [],
      "stateMutability": "nonpayable",
      "type": "function"
    }
  ],
  "bytecode": "0x60806040523480156200001157600080fd5b506040516200002090620001cc565b6200002b9062000299565b604051809103906000f08015801562000048573d6000803e3d6000fd5b50600160006101000a81548173ffffffffffffffffffffffffffffffffffffffff021916908373ffffffffffffffffffffffffffffffffffffffff160217905550600160009054906101000a900473ffffffffffffffffffffffffffffffffffffffff1673ffffffffffffffffffffffffffffffffffffffff166340c10f19306fffffffffffffffffffffffffffffffff6040518363ffffffff1660e01b8152600401620000f89291906200037e565b600060405180830381600087803b1580156200011357600080fd5b505af115801562000128573d6000803e3d6000fd5b50505050600160009054906101000a900473ffffffffffffffffffffffffffffffffffffffff166040516200015d90620001da565b620001699190620003ab565b604051809103906000f08015801562000186573d6000803e3d6000fd5b506000806101000a81548173ffffffffffffffffffffffffffffffffffffffff021916908373ffffffffffffffffffffffffffffffffffffffff160217905550620003c8565b6118dd8062000dd683390190565b610a2080620026b383390190565b600082825260208201905092915050565b7f546f6b656e000000000000000000000000000000000000000000000000000000600082015250565b600062000231600583620001e8565b91506200023e82620001f9565b602082019050919050565b7f544f4b0000000000000000000000000000000000000000000000000000000000600082015250565b600062000281600383620001e8565b91506200028e8262000249565b602082019050919050565b60006040820190508181036000830152620002b48162000222565b90508181036020830152620002c98162000272565b9050919050565b600073ffffffffffffffffffffffffffffffffffffffff82169050919050565b6000620002fd82620002d0565b9050919050565b6200030f81620002f0565b82525050565b60006fffffffffffffffffffffffffffffffff82169050919050565b6000819050919050565b6000819050919050565b600062000366620003606200035a8462000315565b6200033b565b62000331565b9050919050565b620003788162000345565b82525050565b600060408201905062000395600083018562000304565b620003a460208301846200036d565b9392505050565b6000602082019050620003c2600083018462000304565b92915050565b6109fe80620003d86000396000f3fe608060405234801561001057600080fd5b50600436106100365760003560e01c8063412f3e821461003b57806353348ed914610057575b600080fd5b610055600480360381019061005091906107e1565b610073565b005b610071600480360381019061006c91906107e1565b61040d565b005b60008060009054906101000a900473ffffffffffffffffffffffffffffffffffffffff1673ffffffffffffffffffffffffffffffffffffffff16631460fa87306040518263ffffffff1660e01b81526004016100cf919061084f565b602060405180830381865afa1580156100ec573d6000803e3d6000fd5b505050506040513d601f19601f82011682018060405250810190610110919061087f565b1161011a57600080fd5b60008060009054906101000a900473ffffffffffffffffffffffffffffffffffffffff1673ffffffffffffffffffffffffffffffffffffffff16631460fa87306040518263ffffffff1660e01b8152600401610176919061084f565b602060405180830381865afa158015610193573d6000803e3d6000fd5b505050506040513d601f19601f820116820180604052508101906101b7919061087f565b826101c291906108db565b60016101ce919061093b565b90506000600160009054906101000a900473ffffffffffffffffffffffffffffffffffffffff1673ffffffffffffffffffffffffffffffffffffffff166370a08231306040518263ffffffff1660e01b815260040161022d919061084f565b602060405180830381865afa15801561024a573d6000803e3d6000fd5b505050506040513d601f19601f8201168201806040525081019061026e919061087f565b905060008054906101000a900473ffffffffffffffffffffffffffffffffffffffff1673ffffffffffffffffffffffffffffffffffffffff16632e17de78836040518263ffffffff1660e01b81526004016102c9919061097e565b6020604051808303816000875af192505050801561030557506040513d601f19601f82011682018060405250810190610302919061087f565b60015b610350573d8060008114610335576040519150601f19603f3d011682016040523d82523d6000602084013e61033a565b606091505b50600061034a57610349610999565b5b50610408565b808261035c919061093b565b600160009054906101000a900473ffffffffffffffffffffffffffffffffffffffff1673ffffffffffffffffffffffffffffffffffffffff166370a08231306040518263ffffffff1660e01b81526004016103b7919061084f565b602060405180830381865afa1580156103d4573d6000803e3d6000fd5b505050506040513d601f19601f820116820180604052508101906103f8919061087f565b1461040657610405610999565b5b505b505050565b6000600160009054906101000a900473ffffffffffffffffffffffffffffffffffffffff1673ffffffffffffffffffffffffffffffffffffffff166370a08231306040518263ffffffff1660e01b815260040161046a919061084f565b602060405180830381865afa158015610487573d6000803e3d6000fd5b505050506040513d601f19601f820116820180604052508101906104ab919061087f565b116104b557600080fd5b6000600160009054906101000a900473ffffffffffffffffffffffffffffffffffffffff1673ffffffffffffffffffffffffffffffffffffffff166370a08231306040518263ffffffff1660e01b8152600401610512919061084f565b602060405180830381865afa15801561052f573d6000803e3d6000fd5b505050506040513d601f19601f82011682018060405250810190610553919061087f565b8261055e91906108db565b600161056a919061093b565b905060008060009054906101000a900473ffffffffffffffffffffffffffffffffffffffff1673ffffffffffffffffffffffffffffffffffffffff16631460fa87306040518263ffffffff1660e01b81526004016105c8919061084f565b602060405180830381865afa1580156105e5573d6000803e3d6000fd5b505050506040513d601f19601f82011682018060405250810190610609919061087f565b905060008054906101000a900473ffffffffffffffffffffffffffffffffffffffff1673ffffffffffffffffffffffffffffffffffffffff1663a694fc3a836040518263ffffffff1660e01b8152600401610664919061097e565b6020604051808303816000875af19250505080156106a057506040513d601f19601f8201168201806040525081019061069d919061087f565b60015b6106eb573d80600081146106d0576040519150601f19603f3d011682016040523d82523d6000602084013e6106d5565b606091505b5060006106e5576106e4610999565b5b506107a1565b80826106f7919061093b565b60008054906101000a900473ffffffffffffffffffffffffffffffffffffffff1673ffffffffffffffffffffffffffffffffffffffff16631460fa87306040518263ffffffff1660e01b8152600401610750919061084f565b602060405180830381865afa15801561076d573d6000803e3d6000fd5b505050506040513d601f19601f82011682018060405250810190610791919061087f565b1461079f5761079e610999565b5b505b505050565b600080fd5b6000819050919050565b6107be816107ab565b81146107c957600080fd5b50565b6000813590506107db816107b5565b92915050565b6000602082840312156107f7576107f66107a6565b5b6000610805848285016107cc565b91505092915050565b600073ffffffffffffffffffffffffffffffffffffffff82169050919050565b60006108398261080e565b9050919050565b6108498161082e565b82525050565b60006020820190506108646000830184610840565b92915050565b600081519050610879816107b5565b92915050565b600060208284031215610895576108946107a6565b5b60006108a38482850161086a565b91505092915050565b7f4e487b7100000000000000000000000000000000000000000000000000000000600052601260045260246000fd5b60006108e6826107ab565b91506108f1836107ab565b925082610901576109006108ac565b5b828206905092915050565b7f4e487b7100000000000000000000000000000000000000000000000000000000600052601160045260246000fd5b6000610946826107ab565b9150610951836107ab565b92508282019050808211156109695761096861090c565b5b92915050565b610978816107ab565b82525050565b6000602082019050610993600083018461096f565b92915050565b7f4e487b7100000000000000000000000000000000000000000000000000000000600052600160045260246000fdfea264697066735822122089f945d054360ecf82b2274bcb051f9371588b1ada457b061fd65bf13a12b5dc64736f6c6343000811003360806040523480156200001157600080fd5b50604051620018dd380380620018dd8339818101604052810190620000379190620001fa565b818181600390816200004a9190620004ca565b5080600490816200005c9190620004ca565b5050505050620005b1565b6000604051905090565b600080fd5b600080fd5b600080fd5b600080fd5b6000601f19601f8301169050919050565b7f4e487b7100000000000000000000000000000000000000000000000000000000600052604160045260246000fd5b620000d08262000085565b810181811067ffffffffffffffff82111715620000f257620000f162000096565b5b80604052505050565b60006200010762000067565b9050620001158282620000c5565b919050565b600067ffffffffffffffff82111562000138576200013762000096565b5b620001438262000085565b9050602081019050919050565b60005b838110156200017057808201518184015260208101905062000153565b60008484015250505050565b6000620001936200018d846200011a565b620000fb565b905082815260208101848484011115620001b257620001b162000080565b5b620001bf84828562000150565b509392505050565b600082601f830112620001df57620001de6200007b565b5b8151620001f18482602086016200017c565b91505092915050565b6000806040838503121562000214576200021362000071565b5b600083015167ffffffffffffffff81111562000235576200023462000076565b5b6200024385828601620001c7565b925050602083015167ffffffffffffffff81111562000267576200026662000076565b5b6200027585828601620001c7565b9150509250929050565b600081519050919050565b7f4e487b7100000000000000000000000000000000000000000000000000000000600052602260045260246000fd5b60006002820490506001821680620002d257607f821691505b602082108103620002e857620002e76200028a565b5b50919050565b60008190508160005260206000209050919050565b60006020601f8301049050919050565b600082821b905092915050565b600060088302620003527fffffffffffffffffffffffffffffffffffffffffffffffffffffffffffffffff8262000313565b6200035e868362000313565b95508019841693508086168417925050509392505050565b6000819050919050565b6000819050919050565b6000620003ab620003a56200039f8462000376565b62000380565b62000376565b9050919050565b6000819050919050565b620003c7836200038a565b620003df620003d682620003b2565b84845462000320565b825550505050565b600090565b620003f6620003e7565b62000403818484620003bc565b505050565b5b818110156200042b576200041f600082620003ec565b60018101905062000409565b5050565b601f8211156200047a576200044481620002ee565b6200044f8462000303565b810160208510156200045f578190505b620004776200046e8562000303565b83018262000408565b50505b505050565b600082821c905092915050565b60006200049f600019846008026200047f565b1980831691505092915050565b6000620004ba83836200048c565b9150826002028217905092915050565b620004d5826200027f565b67ffffffffffffffff811115620004f157620004f062000096565b5b620004fd8254620002b9565b6200050a8282856200042f565b600060209050601f8311600181146200054257600084156200052d578287015190505b620005398582620004ac565b865550620005a9565b601f1984166200055286620002ee565b60005b828110156200057c5784890151825560018201915060208501945060208101905062000555565b868310156200059c578489015162000598601f8916826200048c565b8355505b6001600288020188555050505b505050505050565b61131c80620005c16000396000f3fe608060405234801561001057600080fd5b50600436106100b45760003560e01c806340c10f191161007157806340c10f19146101a357806370a08231146101bf57806395d89b41146101ef578063a457c2d71461020d578063a9059cbb1461023d578063dd62ed3e1461026d576100b4565b806306fdde03146100b9578063095ea7b3146100d757806318160ddd1461010757806323b872dd14610125578063313ce567146101555780633950935114610173575b600080fd5b6100c161029d565b6040516100ce9190610bf9565b60405180910390f35b6100f160048036038101906100ec9190610cb4565b61032f565b6040516100fe9190610d0f565b60405180910390f35b61010f610352565b60405161011c9190610d39565b60405180910390f35b61013f600480360381019061013a9190610d54565b61035c565b60405161014c9190610d0f565b60405180910390f35b61015d610379565b60405161016a9190610dc3565b60405180910390f35b61018d60048036038101906101889190610cb4565b610382565b60405161019a9190610d0f565b60405180910390f35b6101bd60048036038101906101b89190610cb4565b6103b9565b005b6101d960048036038101906101d49190610dde565b6103c7565b6040516101e69190610d39565b60405180910390f35b6101f761040f565b6040516102049190610bf9565b60405180910390f35b61022760048036038101906102229190610cb4565b6104a1565b6040516102349190610d0f565b60405180910390f35b61025760048036038101906102529190610cb4565b610518565b6040516102649190610d0f565b60405180910390f35b61028760048036038101906102829190610e0b565b61053b565b6040516102949190610d39565b60405180910390f35b6060600380546102ac90610e7a565b80601f01602080910402602001604051908101604052809291908181526020018280546102d890610e7a565b80156103255780601f106102fa57610100808354040283529160200191610325565b820191906000526020600020905b81548152906001019060200180831161030857829003601f168201915b5050505050905090565b60008061033a6105c2565b90506103478185856105ca565b600191505092915050565b6000600254905090565b60008033905061036d858585610793565b60019150509392505050565b60006012905090565b60008061038d6105c2565b90506103ae81858561039f858961053b565b6103a99190610eda565b6105ca565b600191505092915050565b6103c38282610a09565b5050565b60008060008373ffffffffffffffffffffffffffffffffffffffff1673ffffffffffffffffffffffffffffffffffffffff168152602001908152602001600020549050919050565b60606004805461041e90610e7a565b80601f016020809104026020016040519081016040528092919081815260200182805461044a90610e7a565b80156104975780601f1061046c57610100808354040283529160200191610497565b820191906000526020600020905b81548152906001019060200180831161047a57829003601f168201915b5050505050905090565b6000806104ac6105c2565b905060006104ba828661053b565b9050838110156104ff576040517f08c379a00000000000000000000000000000000000000000000000000000000081526004016104f690610f80565b60405180910390fd5b61050c82868684036105ca565b60019250505092915050565b6000806105236105c2565b9050610530818585610793565b600191505092915050565b6000600160008473ffffffffffffffffffffffffffffffffffffffff1673ffffffffffffffffffffffffffffffffffffffff16815260200190815260200160002060008373ffffffffffffffffffffffffffffffffffffffff1673ffffffffffffffffffffffffffffffffffffffff16815260200190815260200160002054905092915050565b600033905090565b600073ffffffffffffffffffffffffffffffffffffffff168373ffffffffffffffffffffffffffffffffffffffff1603610639576040517f08c379a000000000000000000000000000000000000000000000000000000000815260040161063090611012565b60405180910390fd5b600073ffffffffffffffffffffffffffffffffffffffff168273ffffffffffffffffffffffffffffffffffffffff16036106a8576040517f08c379a000000000000000000000000000000000000000000000000000000000815260040161069f906110a4565b60405180910390fd5b80600160008573ffffffffffffffffffffffffffffffffffffffff1673ffffffffffffffffffffffffffffffffffffffff16815260200190815260200160002060008473ffffffffffffffffffffffffffffffffffffffff1673ffffffffffffffffffffffffffffffffffffffff168152602001908152602001600020819055508173ffffffffffffffffffffffffffffffffffffffff168373ffffffffffffffffffffffffffffffffffffffff167f8c5be1e5ebec7d5bd14f71427d1e84f3dd0314c0f7b2291e5b200ac8c7c3b925836040516107869190610d39565b60405180910390a3505050565b600073ffffffffffffffffffffffffffffffffffffffff168373ffffffffffffffffffffffffffffffffffffffff1603610802576040517f08c379a00000000000000000000000000000000000000000000000000000000081526004016107f990611136565b60405180910390fd5b600073ffffffffffffffffffffffffffffffffffffffff168273ffffffffffffffffffffffffffffffffffffffff1603610871576040517f08c379a0000000000000000000000000000000000000000000000000000000008152600401610868906111c8565b60405180910390fd5b61087c838383610b5f565b60008060008573ffffffffffffffffffffffffffffffffffffffff1673ffffffffffffffffffffffffffffffffffffffff16815260200190815260200160002054905081811015610902576040517f08c379a00000000000000000000000000000000000000000000000000000000081526004016108f99061125a565b60405180910390fd5b8181036000808673ffffffffffffffffffffffffffffffffffffffff1673ffffffffffffffffffffffffffffffffffffffff16815260200190815260200160002081905550816000808573ffffffffffffffffffffffffffffffffffffffff1673ffffffffffffffffffffffffffffffffffffffff168152602001908152602001600020600082825401925050819055508273ffffffffffffffffffffffffffffffffffffffff168473ffffffffffffffffffffffffffffffffffffffff167fddf252ad1be2c89b69c2b068fc378daa952ba7f163c4a11628f55a4df523b3ef846040516109f09190610d39565b60405180910390a3610a03848484610b64565b50505050565b600073ffffffffffffffffffffffffffffffffffffffff168273ffffffffffffffffffffffffffffffffffffffff1603610a78576040517f08c379a0000000000000000000000000000000000000000000000000000000008152600401610a6f906112c6565b60405180910390fd5b610a8460008383610b5f565b8060026000828254610a969190610eda565b92505081905550806000808473ffffffffffffffffffffffffffffffffffffffff1673ffffffffffffffffffffffffffffffffffffffff168152602001908152602001600020600082825401925050819055508173ffffffffffffffffffffffffffffffffffffffff16600073ffffffffffffffffffffffffffffffffffffffff167fddf252ad1be2c89b69c2b068fc378daa952ba7f163c4a11628f55a4df523b3ef83604051610b479190610d39565b60405180910390a3610b5b60008383610b64565b5050565b505050565b505050565b600081519050919050565b600082825260208201905092915050565b60005b83811015610ba3578082015181840152602081019050610b88565b60008484015250505050565b6000601f19601f8301169050919050565b6000610bcb82610b69565b610bd58185610b74565b9350610be5818560208601610b85565b610bee81610baf565b840191505092915050565b60006020820190508181036000830152610c138184610bc0565b905092915050565b600080fd5b600073ffffffffffffffffffffffffffffffffffffffff82169050919050565b6000610c4b82610c20565b9050919050565b610c5b81610c40565b8114610c6657600080fd5b50565b600081359050610c7881610c52565b92915050565b6000819050919050565b610c9181610c7e565b8114610c9c57600080fd5b50565b600081359050610cae81610c88565b92915050565b60008060408385031215610ccb57610cca610c1b565b5b6000610cd985828601610c69565b9250506020610cea85828601610c9f565b9150509250929050565b60008115159050919050565b610d0981610cf4565b82525050565b6000602082019050610d246000830184610d00565b92915050565b610d3381610c7e565b82525050565b6000602082019050610d4e6000830184610d2a565b92915050565b600080600060608486031215610d6d57610d6c610c1b565b5b6000610d7b86828701610c69565b9350506020610d8c86828701610c69565b9250506040610d9d86828701610c9f565b9150509250925092565b600060ff82169050919050565b610dbd81610da7565b82525050565b6000602082019050610dd86000830184610db4565b92915050565b600060208284031215610df457610df3610c1b565b5b6000610e0284828501610c69565b91505092915050565b60008060408385031215610e2257610e21610c1b565b5b6000610e3085828601610c69565b9250506020610e4185828601610c69565b9150509250929050565b7f4e487b7100000000000000000000000000000000000000000000000000000000600052602260045260246000fd5b60006002820490506001821680610e9257607f821691505b602082108103610ea557610ea4610e4b565b5b50919050565b7f4e487b7100000000000000000000000000000000000000000000000000000000600052601160045260246000fd5b6000610ee582610c7e565b9150610ef083610c7e565b9250828201905080821115610f0857610f07610eab565b5b92915050565b7f45524332303a2064656372656173656420616c6c6f77616e63652062656c6f7760008201527f207a65726f000000000000000000000000000000000000000000000000000000602082015250565b6000610f6a602583610b74565b9150610f7582610f0e565b604082019050919050565b60006020820190508181036000830152610f9981610f5d565b9050919050565b7f45524332303a20617070726f76652066726f6d20746865207a65726f2061646460008201527f7265737300000000000000000000000000000000000000000000000000000000602082015250565b6000610ffc602483610b74565b915061100782610fa0565b604082019050919050565b6000602082019050818103600083015261102b81610fef565b9050919050565b7f45524332303a20617070726f766520746f20746865207a65726f20616464726560008201527f7373000000000000000000000000000000000000000000000000000000000000602082015250565b600061108e602283610b74565b915061109982611032565b604082019050919050565b600060208201905081810360008301526110bd81611081565b9050919050565b7f45524332303a207472616e736665722066726f6d20746865207a65726f20616460008201527f6472657373000000000000000000000000000000000000000000000000000000602082015250565b6000611120602583610b74565b915061112b826110c4565b604082019050919050565b6000602082019050818103600083015261114f81611113565b9050919050565b7f45524332303a207472616e7366657220746f20746865207a65726f206164647260008201527f6573730000000000000000000000000000000000000000000000000000000000602082015250565b60006111b2602383610b74565b91506111bd82611156565b604082019050919050565b600060208201905081810360008301526111e1816111a5565b9050919050565b7f45524332303a207472616e7366657220616d6f756e742065786365656473206260008201527f616c616e63650000000000000000000000000000000000000000000000000000602082015250565b6000611244602683610b74565b915061124f826111e8565b604082019050919050565b6000602082019050818103600083015261127381611237565b9050919050565b7f45524332303a206d696e7420746f20746865207a65726f206164647265737300600082015250565b60006112b0601f83610b74565b91506112bb8261127a565b602082019050919050565b600060208201905081810360008301526112df816112a3565b905091905056fea2646970667358221220b5f51aefc58e489df4245252f1c798113df266780cd1c0a4bc7f604448354dd364736f6c63430008110033608060405234801561001057600080fd5b50604051610a20380380610a20833981810160405281019061003291906100dc565b80600160006101000a81548173ffffffffffffffffffffffffffffffffffffffff021916908373ffffffffffffffffffffffffffffffffffffffff16021790555050610109565b600080fd5b600073ffffffffffffffffffffffffffffffffffffffff82169050919050565b60006100a98261007e565b9050919050565b6100b98161009e565b81146100c457600080fd5b50565b6000815190506100d6816100b0565b92915050565b6000602082840312156100f2576100f1610079565b5b6000610100848285016100c7565b91505092915050565b610908806101186000396000f3fe608060405234801561001057600080fd5b506004361061004c5760003560e01c80631460fa87146100515780632e17de78146100815780632feec063146100b1578063a694fc3a146100cf575b600080fd5b61006b600480360381019061006691906104b8565b6100ff565b60405161007891906104fe565b60405180910390f35b61009b60048036038101906100969190610545565b610117565b6040516100a891906104fe565b60405180910390f35b6100b96102e3565b6040516100c691906105d1565b60405180910390f35b6100e960048036038101906100e49190610545565b610309565b6040516100f691906104fe565b60405180910390f35b60006020528060005260406000206000915090505481565b6000816000803373ffffffffffffffffffffffffffffffffffffffff1673ffffffffffffffffffffffffffffffffffffffff16815260200190815260200160002054101561019a576040517f08c379a00000000000000000000000000000000000000000000000000000000081526004016101919061066f565b60405180910390fd5b816000803373ffffffffffffffffffffffffffffffffffffffff1673ffffffffffffffffffffffffffffffffffffffff16815260200190815260200160002060008282546101e891906106be565b925050819055508190506000600160009054906101000a900473ffffffffffffffffffffffffffffffffffffffff1673ffffffffffffffffffffffffffffffffffffffff1663a9059cbb33846040518363ffffffff1660e01b8152600401610251929190610701565b6020604051808303816000875af1158015610270573d6000803e3d6000fd5b505050506040513d601f19601f820116820180604052508101906102949190610762565b905060011515811515146102dd576040517f08c379a00000000000000000000000000000000000000000000000000000000081526004016102d4906107db565b60405180910390fd5b50919050565b600160009054906101000a900473ffffffffffffffffffffffffffffffffffffffff1681565b600080600160009054906101000a900473ffffffffffffffffffffffffffffffffffffffff1673ffffffffffffffffffffffffffffffffffffffff166323b872dd3330866040518463ffffffff1660e01b815260040161036b939291906107fb565b6020604051808303816000875af115801561038a573d6000803e3d6000fd5b505050506040513d601f19601f820116820180604052508101906103ae9190610762565b905060011515811515146103f7576040517f08c379a00000000000000000000000000000000000000000000000000000000081526004016103ee9061087e565b60405180910390fd5b829150816000803373ffffffffffffffffffffffffffffffffffffffff1673ffffffffffffffffffffffffffffffffffffffff1681526020019081526020016000206000828254610448919061089e565b9250508190555050919050565b600080fd5b600073ffffffffffffffffffffffffffffffffffffffff82169050919050565b60006104858261045a565b9050919050565b6104958161047a565b81146104a057600080fd5b50565b6000813590506104b28161048c565b92915050565b6000602082840312156104ce576104cd610455565b5b60006104dc848285016104a3565b91505092915050565b6000819050919050565b6104f8816104e5565b82525050565b600060208201905061051360008301846104ef565b92915050565b610522816104e5565b811461052d57600080fd5b50565b60008135905061053f81610519565b92915050565b60006020828403121561055b5761055a610455565b5b600061056984828501610530565b91505092915050565b6000819050919050565b600061059761059261058d8461045a565b610572565b61045a565b9050919050565b60006105a98261057c565b9050919050565b60006105bb8261059e565b9050919050565b6105cb816105b0565b82525050565b60006020820190506105e660008301846105c2565b92915050565b600082825260208201905092915050565b7f43616e6e6f7420756e7374616b65206d6f7265207468616e20796f752068617660008201527f6500000000000000000000000000000000000000000000000000000000000000602082015250565b60006106596021836105ec565b9150610664826105fd565b604082019050919050565b600060208201905081810360008301526106888161064c565b9050919050565b7f4e487b7100000000000000000000000000000000000000000000000000000000600052601160045260246000fd5b60006106c9826104e5565b91506106d4836104e5565b92508282039050818111156106ec576106eb61068f565b5b92915050565b6106fb8161047a565b82525050565b600060408201905061071660008301856106f2565b61072360208301846104ef565b9392505050565b60008115159050919050565b61073f8161072a565b811461074a57600080fd5b50565b60008151905061075c81610736565b92915050565b60006020828403121561077857610777610455565b5b60006107868482850161074d565b91505092915050565b7f7472616e73666572206661696c65640000000000000000000000000000000000600082015250565b60006107c5600f836105ec565b91506107d08261078f565b602082019050919050565b600060208201905081810360008301526107f4816107b8565b9050919050565b600060608201905061081060008301866106f2565b61081d60208301856106f2565b61082a60408301846104ef565b949350505050565b7f7472616e7366657246726f6d206661696c656400000000000000000000000000600082015250565b60006108686013836105ec565b915061087382610832565b602082019050919050565b600060208201905081810360008301526108978161085b565b9050919050565b60006108a9826104e5565b91506108b4836104e5565b92508282019050808211156108cc576108cb61068f565b5b9291505056fea26469706673582212203b183a9445116fb9c1ae370f63e244b4c61ac396fa4c2a964bc811dd2c8922a664736f6c63430008110033",
  "linkReferences": {},
  "deployedLinkReferences": {}
}