{
  "_format": "hh-sol-artifact-1",
  "contractName": "EchidnaTemplate",
  "sourceName": "contracts/Template.sol",
  "abi": [
    {
      "inputs": [],
      "stateMutability": "nonpayable",
      "type": "constructor"
    },
    {
      "inputs": [
        {
          "internalType": "uint256",
          "name": "_amount",
          "type": "uint256"
        }
      ],
      "name": "testStake",
      "outputs": [],
      "stateMutability": "nonpayable",
      "type": "function"
    },
    {
      "inputs": [
        {
          "internalType": "uint256",
          "name": "_stakedAmount",
          "type": "uint256"
        }
      ],
      "name": "testUnstake",
      "outputs": [],
      "stateMutability": "nonpayable",
      "type": "function"
    }
  ],
  "bytecode": "0x60806040523480156200001157600080fd5b50604051620000209062000129565b6200002b90620001f6565b604051809103906000f08015801562000048573d6000803e3d6000fd5b50600160006101000a81548173ffffffffffffffffffffffffffffffffffffffff021916908373ffffffffffffffffffffffffffffffffffffffff160217905550600160009054906101000a900473ffffffffffffffffffffffffffffffffffffffff16604051620000ba9062000137565b620000c6919062000272565b604051809103906000f080158015620000e3573d6000803e3d6000fd5b506000806101000a81548173ffffffffffffffffffffffffffffffffffffffff021916908373ffffffffffffffffffffffffffffffffffffffff1602179055506200028f565b6119e78062000c1d83390190565b610a20806200260483390190565b600082825260208201905092915050565b7f546f6b656e000000000000000000000000000000000000000000000000000000600082015250565b60006200018e60058362000145565b91506200019b8262000156565b602082019050919050565b7f544f4b0000000000000000000000000000000000000000000000000000000000600082015250565b6000620001de60038362000145565b9150620001eb82620001a6565b602082019050919050565b6000604082019050818103600083015262000211816200017f565b905081810360208301526200022681620001cf565b9050919050565b600073ffffffffffffffffffffffffffffffffffffffff82169050919050565b60006200025a826200022d565b9050919050565b6200026c816200024d565b82525050565b600060208201905062000289600083018462000261565b92915050565b61097e806200029f6000396000f3fe608060405234801561001057600080fd5b50600436106100365760003560e01c8063412f3e821461003b57806353348ed914610057575b600080fd5b61005560048036038101906100509190610761565b610073565b005b610071600480360381019061006c9190610761565b6103cd565b005b60008060009054906101000a900473ffffffffffffffffffffffffffffffffffffffff1673ffffffffffffffffffffffffffffffffffffffff16631460fa87306040518263ffffffff1660e01b81526004016100cf91906107cf565b602060405180830381865afa1580156100ec573d6000803e3d6000fd5b505050506040513d601f19601f8201168201806040525081019061011091906107ff565b1161011a57600080fd5b60008060009054906101000a900473ffffffffffffffffffffffffffffffffffffffff1673ffffffffffffffffffffffffffffffffffffffff16631460fa87306040518263ffffffff1660e01b815260040161017691906107cf565b602060405180830381865afa158015610193573d6000803e3d6000fd5b505050506040513d601f19601f820116820180604052508101906101b791906107ff565b826101c2919061085b565b60016101ce91906108bb565b90506000600160009054906101000a900473ffffffffffffffffffffffffffffffffffffffff1673ffffffffffffffffffffffffffffffffffffffff166370a08231306040518263ffffffff1660e01b815260040161022d91906107cf565b602060405180830381865afa15801561024a573d6000803e3d6000fd5b505050506040513d601f19601f8201168201806040525081019061026e91906107ff565b905060008060009054906101000a900473ffffffffffffffffffffffffffffffffffffffff1673ffffffffffffffffffffffffffffffffffffffff16632e17de78846040518263ffffffff1660e01b81526004016102cc91906108fe565b6020604051808303816000875af11580156102eb573d6000803e3d6000fd5b505050506040513d601f19601f8201168201806040525081019061030f91906107ff565b9050808261031d91906108bb565b600160009054906101000a900473ffffffffffffffffffffffffffffffffffffffff1673ffffffffffffffffffffffffffffffffffffffff166370a08231306040518263ffffffff1660e01b815260040161037891906107cf565b602060405180830381865afa158015610395573d6000803e3d6000fd5b505050506040513d601f19601f820116820180604052508101906103b991906107ff565b146103c7576103c6610919565b5b50505050565b6000600160009054906101000a900473ffffffffffffffffffffffffffffffffffffffff1673ffffffffffffffffffffffffffffffffffffffff166370a08231306040518263ffffffff1660e01b815260040161042a91906107cf565b602060405180830381865afa158015610447573d6000803e3d6000fd5b505050506040513d601f19601f8201168201806040525081019061046b91906107ff565b1161047557600080fd5b6000600160009054906101000a900473ffffffffffffffffffffffffffffffffffffffff1673ffffffffffffffffffffffffffffffffffffffff166370a08231306040518263ffffffff1660e01b81526004016104d291906107cf565b602060405180830381865afa1580156104ef573d6000803e3d6000fd5b505050506040513d601f19601f8201168201806040525081019061051391906107ff565b8261051e919061085b565b600161052a91906108bb565b905060008060009054906101000a900473ffffffffffffffffffffffffffffffffffffffff1673ffffffffffffffffffffffffffffffffffffffff16631460fa87306040518263ffffffff1660e01b815260040161058891906107cf565b602060405180830381865afa1580156105a5573d6000803e3d6000fd5b505050506040513d601f19601f820116820180604052508101906105c991906107ff565b905060008060009054906101000a900473ffffffffffffffffffffffffffffffffffffffff1673ffffffffffffffffffffffffffffffffffffffff1663a694fc3a846040518263ffffffff1660e01b815260040161062791906108fe565b6020604051808303816000875af1158015610646573d6000803e3d6000fd5b505050506040513d601f19601f8201168201806040525081019061066a91906107ff565b9050808261067891906108bb565b60008054906101000a900473ffffffffffffffffffffffffffffffffffffffff1673ffffffffffffffffffffffffffffffffffffffff16631460fa87306040518263ffffffff1660e01b81526004016106d191906107cf565b602060405180830381865afa1580156106ee573d6000803e3d6000fd5b505050506040513d601f19601f8201168201806040525081019061071291906107ff565b146107205761071f610919565b5b50505050565b600080fd5b6000819050919050565b61073e8161072b565b811461074957600080fd5b50565b60008135905061075b81610735565b92915050565b60006020828403121561077757610776610726565b5b60006107858482850161074c565b91505092915050565b600073ffffffffffffffffffffffffffffffffffffffff82169050919050565b60006107b98261078e565b9050919050565b6107c9816107ae565b82525050565b60006020820190506107e460008301846107c0565b92915050565b6000815190506107f981610735565b92915050565b60006020828403121561081557610814610726565b5b6000610823848285016107ea565b91505092915050565b7f4e487b7100000000000000000000000000000000000000000000000000000000600052601260045260246000fd5b60006108668261072b565b91506108718361072b565b9250826108815761088061082c565b5b828206905092915050565b7f4e487b7100000000000000000000000000000000000000000000000000000000600052601160045260246000fd5b60006108c68261072b565b91506108d18361072b565b92508282019050808211156108e9576108e861088c565b5b92915050565b6108f88161072b565b82525050565b600060208201905061091360008301846108ef565b92915050565b7f4e487b7100000000000000000000000000000000000000000000000000000000600052600160045260246000fdfea2646970667358221220ee0dc03057df878035e5fbdfbf6d584c8737486d9fc24a8c92f067e5bdd0e0cd64736f6c6343000811003360806040523480156200001157600080fd5b50604051620019e7380380620019e78339818101604052810190620000379190620001fa565b818181600390816200004a9190620004ca565b5080600490816200005c9190620004ca565b5050505050620005b1565b6000604051905090565b600080fd5b600080fd5b600080fd5b600080fd5b6000601f19601f8301169050919050565b7f4e487b7100000000000000000000000000000000000000000000000000000000600052604160045260246000fd5b620000d08262000085565b810181811067ffffffffffffffff82111715620000f257620000f162000096565b5b80604052505050565b60006200010762000067565b9050620001158282620000c5565b919050565b600067ffffffffffffffff82111562000138576200013762000096565b5b620001438262000085565b9050602081019050919050565b60005b838110156200017057808201518184015260208101905062000153565b60008484015250505050565b6000620001936200018d846200011a565b620000fb565b905082815260208101848484011115620001b257620001b162000080565b5b620001bf84828562000150565b509392505050565b600082601f830112620001df57620001de6200007b565b5b8151620001f18482602086016200017c565b91505092915050565b6000806040838503121562000214576200021362000071565b5b600083015167ffffffffffffffff81111562000235576200023462000076565b5b6200024385828601620001c7565b925050602083015167ffffffffffffffff81111562000267576200026662000076565b5b6200027585828601620001c7565b9150509250929050565b600081519050919050565b7f4e487b7100000000000000000000000000000000000000000000000000000000600052602260045260246000fd5b60006002820490506001821680620002d257607f821691505b602082108103620002e857620002e76200028a565b5b50919050565b60008190508160005260206000209050919050565b60006020601f8301049050919050565b600082821b905092915050565b600060088302620003527fffffffffffffffffffffffffffffffffffffffffffffffffffffffffffffffff8262000313565b6200035e868362000313565b95508019841693508086168417925050509392505050565b6000819050919050565b6000819050919050565b6000620003ab620003a56200039f8462000376565b62000380565b62000376565b9050919050565b6000819050919050565b620003c7836200038a565b620003df620003d682620003b2565b84845462000320565b825550505050565b600090565b620003f6620003e7565b62000403818484620003bc565b505050565b5b818110156200042b576200041f600082620003ec565b60018101905062000409565b5050565b601f8211156200047a576200044481620002ee565b6200044f8462000303565b810160208510156200045f578190505b620004776200046e8562000303565b83018262000408565b50505b505050565b600082821c905092915050565b60006200049f600019846008026200047f565b1980831691505092915050565b6000620004ba83836200048c565b9150826002028217905092915050565b620004d5826200027f565b67ffffffffffffffff811115620004f157620004f062000096565b5b620004fd8254620002b9565b6200050a8282856200042f565b600060209050601f8311600181146200054257600084156200052d578287015190505b620005398582620004ac565b865550620005a9565b601f1984166200055286620002ee565b60005b828110156200057c5784890151825560018201915060208501945060208101905062000555565b868310156200059c578489015162000598601f8916826200048c565b8355505b6001600288020188555050505b505050505050565b61142680620005c16000396000f3fe608060405234801561001057600080fd5b50600436106100b45760003560e01c806340c10f191161007157806340c10f19146101a357806370a08231146101bf57806395d89b41146101ef578063a457c2d71461020d578063a9059cbb1461023d578063dd62ed3e1461026d576100b4565b806306fdde03146100b9578063095ea7b3146100d757806318160ddd1461010757806323b872dd14610125578063313ce567146101555780633950935114610173575b600080fd5b6100c161029d565b6040516100ce9190610c97565b60405180910390f35b6100f160048036038101906100ec9190610d52565b61032f565b6040516100fe9190610dad565b60405180910390f35b61010f610352565b60405161011c9190610dd7565b60405180910390f35b61013f600480360381019061013a9190610df2565b61035c565b60405161014c9190610dad565b60405180910390f35b61015d61038b565b60405161016a9190610e61565b60405180910390f35b61018d60048036038101906101889190610d52565b610394565b60405161019a9190610dad565b60405180910390f35b6101bd60048036038101906101b89190610d52565b6103cb565b005b6101d960048036038101906101d49190610e7c565b6103d9565b6040516101e69190610dd7565b60405180910390f35b6101f7610421565b6040516102049190610c97565b60405180910390f35b61022760048036038101906102229190610d52565b6104b3565b6040516102349190610dad565b60405180910390f35b61025760048036038101906102529190610d52565b61052a565b6040516102649190610dad565b60405180910390f35b61028760048036038101906102829190610ea9565b61054d565b6040516102949190610dd7565b60405180910390f35b6060600380546102ac90610f18565b80601f01602080910402602001604051908101604052809291908181526020018280546102d890610f18565b80156103255780601f106102fa57610100808354040283529160200191610325565b820191906000526020600020905b81548152906001019060200180831161030857829003601f168201915b5050505050905090565b60008061033a6105d4565b90506103478185856105dc565b600191505092915050565b6000600254905090565b6000806103676105d4565b90506103748582856107a5565b61037f858585610831565b60019150509392505050565b60006012905090565b60008061039f6105d4565b90506103c08185856103b1858961054d565b6103bb9190610f78565b6105dc565b600191505092915050565b6103d58282610aa7565b5050565b60008060008373ffffffffffffffffffffffffffffffffffffffff1673ffffffffffffffffffffffffffffffffffffffff168152602001908152602001600020549050919050565b60606004805461043090610f18565b80601f016020809104026020016040519081016040528092919081815260200182805461045c90610f18565b80156104a95780601f1061047e576101008083540402835291602001916104a9565b820191906000526020600020905b81548152906001019060200180831161048c57829003601f168201915b5050505050905090565b6000806104be6105d4565b905060006104cc828661054d565b905083811015610511576040517f08c379a00000000000000000000000000000000000000000000000000000000081526004016105089061101e565b60405180910390fd5b61051e82868684036105dc565b60019250505092915050565b6000806105356105d4565b9050610542818585610831565b600191505092915050565b6000600160008473ffffffffffffffffffffffffffffffffffffffff1673ffffffffffffffffffffffffffffffffffffffff16815260200190815260200160002060008373ffffffffffffffffffffffffffffffffffffffff1673ffffffffffffffffffffffffffffffffffffffff16815260200190815260200160002054905092915050565b600033905090565b600073ffffffffffffffffffffffffffffffffffffffff168373ffffffffffffffffffffffffffffffffffffffff160361064b576040517f08c379a0000000000000000000000000000000000000000000000000000000008152600401610642906110b0565b60405180910390fd5b600073ffffffffffffffffffffffffffffffffffffffff168273ffffffffffffffffffffffffffffffffffffffff16036106ba576040517f08c379a00000000000000000000000000000000000000000000000000000000081526004016106b190611142565b60405180910390fd5b80600160008573ffffffffffffffffffffffffffffffffffffffff1673ffffffffffffffffffffffffffffffffffffffff16815260200190815260200160002060008473ffffffffffffffffffffffffffffffffffffffff1673ffffffffffffffffffffffffffffffffffffffff168152602001908152602001600020819055508173ffffffffffffffffffffffffffffffffffffffff168373ffffffffffffffffffffffffffffffffffffffff167f8c5be1e5ebec7d5bd14f71427d1e84f3dd0314c0f7b2291e5b200ac8c7c3b925836040516107989190610dd7565b60405180910390a3505050565b60006107b1848461054d565b90507fffffffffffffffffffffffffffffffffffffffffffffffffffffffffffffffff811461082b578181101561081d576040517f08c379a0000000000000000000000000000000000000000000000000000000008152600401610814906111ae565b60405180910390fd5b61082a84848484036105dc565b5b50505050565b600073ffffffffffffffffffffffffffffffffffffffff168373ffffffffffffffffffffffffffffffffffffffff16036108a0576040517f08c379a000000000000000000000000000000000000000000000000000000000815260040161089790611240565b60405180910390fd5b600073ffffffffffffffffffffffffffffffffffffffff168273ffffffffffffffffffffffffffffffffffffffff160361090f576040517f08c379a0000000000000000000000000000000000000000000000000000000008152600401610906906112d2565b60405180910390fd5b61091a838383610bfd565b60008060008573ffffffffffffffffffffffffffffffffffffffff1673ffffffffffffffffffffffffffffffffffffffff168152602001908152602001600020549050818110156109a0576040517f08c379a000000000000000000000000000000000000000000000000000000000815260040161099790611364565b60405180910390fd5b8181036000808673ffffffffffffffffffffffffffffffffffffffff1673ffffffffffffffffffffffffffffffffffffffff16815260200190815260200160002081905550816000808573ffffffffffffffffffffffffffffffffffffffff1673ffffffffffffffffffffffffffffffffffffffff168152602001908152602001600020600082825401925050819055508273ffffffffffffffffffffffffffffffffffffffff168473ffffffffffffffffffffffffffffffffffffffff167fddf252ad1be2c89b69c2b068fc378daa952ba7f163c4a11628f55a4df523b3ef84604051610a8e9190610dd7565b60405180910390a3610aa1848484610c02565b50505050565b600073ffffffffffffffffffffffffffffffffffffffff168273ffffffffffffffffffffffffffffffffffffffff1603610b16576040517f08c379a0000000000000000000000000000000000000000000000000000000008152600401610b0d906113d0565b60405180910390fd5b610b2260008383610bfd565b8060026000828254610b349190610f78565b92505081905550806000808473ffffffffffffffffffffffffffffffffffffffff1673ffffffffffffffffffffffffffffffffffffffff168152602001908152602001600020600082825401925050819055508173ffffffffffffffffffffffffffffffffffffffff16600073ffffffffffffffffffffffffffffffffffffffff167fddf252ad1be2c89b69c2b068fc378daa952ba7f163c4a11628f55a4df523b3ef83604051610be59190610dd7565b60405180910390a3610bf960008383610c02565b5050565b505050565b505050565b600081519050919050565b600082825260208201905092915050565b60005b83811015610c41578082015181840152602081019050610c26565b60008484015250505050565b6000601f19601f8301169050919050565b6000610c6982610c07565b610c738185610c12565b9350610c83818560208601610c23565b610c8c81610c4d565b840191505092915050565b60006020820190508181036000830152610cb18184610c5e565b905092915050565b600080fd5b600073ffffffffffffffffffffffffffffffffffffffff82169050919050565b6000610ce982610cbe565b9050919050565b610cf981610cde565b8114610d0457600080fd5b50565b600081359050610d1681610cf0565b92915050565b6000819050919050565b610d2f81610d1c565b8114610d3a57600080fd5b50565b600081359050610d4c81610d26565b92915050565b60008060408385031215610d6957610d68610cb9565b5b6000610d7785828601610d07565b9250506020610d8885828601610d3d565b9150509250929050565b60008115159050919050565b610da781610d92565b82525050565b6000602082019050610dc26000830184610d9e565b92915050565b610dd181610d1c565b82525050565b6000602082019050610dec6000830184610dc8565b92915050565b600080600060608486031215610e0b57610e0a610cb9565b5b6000610e1986828701610d07565b9350506020610e2a86828701610d07565b9250506040610e3b86828701610d3d565b9150509250925092565b600060ff82169050919050565b610e5b81610e45565b82525050565b6000602082019050610e766000830184610e52565b92915050565b600060208284031215610e9257610e91610cb9565b5b6000610ea084828501610d07565b91505092915050565b60008060408385031215610ec057610ebf610cb9565b5b6000610ece85828601610d07565b9250506020610edf85828601610d07565b9150509250929050565b7f4e487b7100000000000000000000000000000000000000000000000000000000600052602260045260246000fd5b60006002820490506001821680610f3057607f821691505b602082108103610f4357610f42610ee9565b5b50919050565b7f4e487b7100000000000000000000000000000000000000000000000000000000600052601160045260246000fd5b6000610f8382610d1c565b9150610f8e83610d1c565b9250828201905080821115610fa657610fa5610f49565b5b92915050565b7f45524332303a2064656372656173656420616c6c6f77616e63652062656c6f7760008201527f207a65726f000000000000000000000000000000000000000000000000000000602082015250565b6000611008602583610c12565b915061101382610fac565b604082019050919050565b6000602082019050818103600083015261103781610ffb565b9050919050565b7f45524332303a20617070726f76652066726f6d20746865207a65726f2061646460008201527f7265737300000000000000000000000000000000000000000000000000000000602082015250565b600061109a602483610c12565b91506110a58261103e565b604082019050919050565b600060208201905081810360008301526110c98161108d565b9050919050565b7f45524332303a20617070726f766520746f20746865207a65726f20616464726560008201527f7373000000000000000000000000000000000000000000000000000000000000602082015250565b600061112c602283610c12565b9150611137826110d0565b604082019050919050565b6000602082019050818103600083015261115b8161111f565b9050919050565b7f45524332303a20696e73756666696369656e7420616c6c6f77616e6365000000600082015250565b6000611198601d83610c12565b91506111a382611162565b602082019050919050565b600060208201905081810360008301526111c78161118b565b9050919050565b7f45524332303a207472616e736665722066726f6d20746865207a65726f20616460008201527f6472657373000000000000000000000000000000000000000000000000000000602082015250565b600061122a602583610c12565b9150611235826111ce565b604082019050919050565b600060208201905081810360008301526112598161121d565b9050919050565b7f45524332303a207472616e7366657220746f20746865207a65726f206164647260008201527f6573730000000000000000000000000000000000000000000000000000000000602082015250565b60006112bc602383610c12565b91506112c782611260565b604082019050919050565b600060208201905081810360008301526112eb816112af565b9050919050565b7f45524332303a207472616e7366657220616d6f756e742065786365656473206260008201527f616c616e63650000000000000000000000000000000000000000000000000000602082015250565b600061134e602683610c12565b9150611359826112f2565b604082019050919050565b6000602082019050818103600083015261137d81611341565b9050919050565b7f45524332303a206d696e7420746f20746865207a65726f206164647265737300600082015250565b60006113ba601f83610c12565b91506113c582611384565b602082019050919050565b600060208201905081810360008301526113e9816113ad565b905091905056fea26469706673582212203933aa416111dfa8e2b9577a00c95ea57ca17ae6e07e84d448600b09796c744a64736f6c63430008110033608060405234801561001057600080fd5b50604051610a20380380610a20833981810160405281019061003291906100dc565b80600160006101000a81548173ffffffffffffffffffffffffffffffffffffffff021916908373ffffffffffffffffffffffffffffffffffffffff16021790555050610109565b600080fd5b600073ffffffffffffffffffffffffffffffffffffffff82169050919050565b60006100a98261007e565b9050919050565b6100b98161009e565b81146100c457600080fd5b50565b6000815190506100d6816100b0565b92915050565b6000602082840312156100f2576100f1610079565b5b6000610100848285016100c7565b91505092915050565b610908806101186000396000f3fe608060405234801561001057600080fd5b506004361061004c5760003560e01c80631460fa87146100515780632e17de78146100815780632feec063146100b1578063a694fc3a146100cf575b600080fd5b61006b600480360381019061006691906104b8565b6100ff565b60405161007891906104fe565b60405180910390f35b61009b60048036038101906100969190610545565b610117565b6040516100a891906104fe565b60405180910390f35b6100b96102e3565b6040516100c691906105d1565b60405180910390f35b6100e960048036038101906100e49190610545565b610309565b6040516100f691906104fe565b60405180910390f35b60006020528060005260406000206000915090505481565b6000816000803373ffffffffffffffffffffffffffffffffffffffff1673ffffffffffffffffffffffffffffffffffffffff16815260200190815260200160002054101561019a576040517f08c379a00000000000000000000000000000000000000000000000000000000081526004016101919061066f565b60405180910390fd5b816000803373ffffffffffffffffffffffffffffffffffffffff1673ffffffffffffffffffffffffffffffffffffffff16815260200190815260200160002060008282546101e891906106be565b925050819055508190506000600160009054906101000a900473ffffffffffffffffffffffffffffffffffffffff1673ffffffffffffffffffffffffffffffffffffffff1663a9059cbb33846040518363ffffffff1660e01b8152600401610251929190610701565b6020604051808303816000875af1158015610270573d6000803e3d6000fd5b505050506040513d601f19601f820116820180604052508101906102949190610762565b905060011515811515146102dd576040517f08c379a00000000000000000000000000000000000000000000000000000000081526004016102d4906107db565b60405180910390fd5b50919050565b600160009054906101000a900473ffffffffffffffffffffffffffffffffffffffff1681565b600080600160009054906101000a900473ffffffffffffffffffffffffffffffffffffffff1673ffffffffffffffffffffffffffffffffffffffff166323b872dd3330866040518463ffffffff1660e01b815260040161036b939291906107fb565b6020604051808303816000875af115801561038a573d6000803e3d6000fd5b505050506040513d601f19601f820116820180604052508101906103ae9190610762565b905060011515811515146103f7576040517f08c379a00000000000000000000000000000000000000000000000000000000081526004016103ee9061087e565b60405180910390fd5b829150816000803373ffffffffffffffffffffffffffffffffffffffff1673ffffffffffffffffffffffffffffffffffffffff1681526020019081526020016000206000828254610448919061089e565b9250508190555050919050565b600080fd5b600073ffffffffffffffffffffffffffffffffffffffff82169050919050565b60006104858261045a565b9050919050565b6104958161047a565b81146104a057600080fd5b50565b6000813590506104b28161048c565b92915050565b6000602082840312156104ce576104cd610455565b5b60006104dc848285016104a3565b91505092915050565b6000819050919050565b6104f8816104e5565b82525050565b600060208201905061051360008301846104ef565b92915050565b610522816104e5565b811461052d57600080fd5b50565b60008135905061053f81610519565b92915050565b60006020828403121561055b5761055a610455565b5b600061056984828501610530565b91505092915050565b6000819050919050565b600061059761059261058d8461045a565b610572565b61045a565b9050919050565b60006105a98261057c565b9050919050565b60006105bb8261059e565b9050919050565b6105cb816105b0565b82525050565b60006020820190506105e660008301846105c2565b92915050565b600082825260208201905092915050565b7f43616e6e6f7420756e7374616b65206d6f7265207468616e20796f752068617660008201527f6500000000000000000000000000000000000000000000000000000000000000602082015250565b60006106596021836105ec565b9150610664826105fd565b604082019050919050565b600060208201905081810360008301526106888161064c565b9050919050565b7f4e487b7100000000000000000000000000000000000000000000000000000000600052601160045260246000fd5b60006106c9826104e5565b91506106d4836104e5565b92508282039050818111156106ec576106eb61068f565b5b92915050565b6106fb8161047a565b82525050565b600060408201905061071660008301856106f2565b61072360208301846104ef565b9392505050565b60008115159050919050565b61073f8161072a565b811461074a57600080fd5b50565b60008151905061075c81610736565b92915050565b60006020828403121561077857610777610455565b5b60006107868482850161074d565b91505092915050565b7f7472616e73666572206661696c65640000000000000000000000000000000000600082015250565b60006107c5600f836105ec565b91506107d08261078f565b602082019050919050565b600060208201905081810360008301526107f4816107b8565b9050919050565b600060608201905061081060008301866106f2565b61081d60208301856106f2565b61082a60408301846104ef565b949350505050565b7f7472616e7366657246726f6d206661696c656400000000000000000000000000600082015250565b60006108686013836105ec565b915061087382610832565b602082019050919050565b600060208201905081810360008301526108978161085b565b9050919050565b60006108a9826104e5565b91506108b4836104e5565b92508282019050808211156108cc576108cb61068f565b5b9291505056fea26469706673582212203b183a9445116fb9c1ae370f63e244b4c61ac396fa4c2a964bc811dd2c8922a664736f6c63430008110033",
  "linkReferences": {},
  "deployedLinkReferences": {}
}